:020000040800F2
:1000000000980020C10100085B020008CB01000835
:100010005702000851020008A90300080000000070
:100020000000000000000000000000005F02000867
:1000300055020008000000005D020008610200088F
:10004000DB010008DB010008DB010008DB01000820
:10005000DB010008DB010008DB010008DB01000810
:10006000DB010008DB010008DB010008DB01000800
:10007000DB010008DB010008DB010008DB010008F0
:10008000DB010008DB010008DB010008DB010008E0
:10009000DB010008DB010008DB010008DB010008D0
:1000A000DB010008DB010008DB010008DB010008C0
:1000B000DB0100083D030008DB010008DB0100084C
:1000C000DB010008DB010008DB010008DB010008A0
:1000D000DB010008DB010008DB010008DB01000890
:1000E000DB010008DB010008DB010008DB01000880
:1000F000DB010008DB010008DB010008DB01000870
:10010000DB010008DB010008DB010008DB0100085F
:10011000DB010008DB010008DB010008DB0100084F
:10012000DB010008DB010008DB010008DB0100083F
:10013000DB010008DB010008DB010008DB0100082F
:10014000DB010008DB010008DB010008DB0100081F
:10015000DB010008DB010008DB010008DB0100080F
:10016000DB010008DB010008DB010008DB010008FF
:10017000DB010008DB010008DB01000800000000D3
:10018000DB010008DB010008DB010008DB010008DF
:10019000DB010008DB010008DB01000800000000B3
:1001A000DB010008DB010008DB010008DFF80CD0F0
:1001B00000F03CF800480047EB13000800980020CE
:1001C0000648804706480047FEE7FEE7FEE7FEE7F1
:1001D000FEE7FEE7FEE7FEE7FEE7FEE7690200084E
:1001E000AD01000840EA01039B0703D009E008C9FC
:1001F000121F08C0042AFAD203E011F8013B00F8EC
:10020000013B521EF9D27047D2B201E000F8012B37
:10021000491EFBD270470022F6E710B513460A4686
:1002200004461946FFF7F0FF204610BD064C074D67
:1002300006E0E06840F0010394E8070098471034B6
:10024000AC42F6D3FFF7B6FF80470008A04700088E
:1002500000BFFEE7704700BFFEE77047704770477A
:1002600010B500F079F810BD08B53048006840F4CA
:1002700070002E4908602E48006840F001002C49AB
:10028000086000BF2A48006800F002000028F9D08A
:1002900000BF27480830006840F08000244908313A
:1002A00008600020009002E00098401C0090009838
:1002B0005028F9D31E480830006840F090001C49CF
:1002C000083108600020009002E00098401C009077
:1002D00000985028F9D300BF15480830006820F076
:1002E00003001349083108601148006811490840AB
:1002F0000F4908600846006820F48020086000204C
:100300000B490831086000BF094808300068002028
:100310000028F9D108480649091D08600020044951
:100320000C31086004F0EEF808BD000088ED00E034
:1003300000380240FFFFF6FE1030002410B5012106
:10034000044804F010FA18B10121024804F008FA38
:1003500010BD00000004004010B50F48D0E9003087
:100360005A1C40F100000C49C1E900200B4800680C
:1003700020B10A480068401E084908600848006823
:1003800020B903F0E5FF0748054908600448006804
:10039000401E0349086010BD2800002020000020F6
:1003A00024000020400D030000BFFEE702E008C863
:1003B000121F08C1002AFAD170477047002001E0DF
:1003C00001C1121F002AFBD17047000010B503F0D5
:1003D000DBFF03F0CFFC00F00BF803A002F058F8AD
:1003E00001F0FEFA10BD00006574683000000000E6
:1003F0001FB541F2010003F0D1FD4FF0807003F012
:1004000003FE0F4804F094F8C720ADF80000002068
:10041000ADF80200ADF804004FF47A7002900020AD
:10042000ADF806008DF80C006946054804F048F95F
:100430000121034804F090F9014804F03BF91FBD85
:10044000000400400349086000BF02490968002910
:10045000FBD170472000002070B505460E4600F025
:10046000E7FD30B100223146284600F0E7F80446A7
:1004700000E00024204670BD2DE9F04105460E46FF
:10048000174600F0D5FD30B13A463146284600F017
:10049000D5F8044600E000242046BDE8F08170B5A0
:1004A00004460D4600262946204600F047F9064638
:1004B000304670BD10B540F6194003F06FFD40F6B0
:1004C0001A4003F06BFD40F61B4003F067FD10BDC2
:1004D0000020134908681349084000BF104908600C
:1004E00000210F4A51609160D160114688694FF632
:1004F0004171084040F08000114688610021D161BF
:10050000094988690949084040F00870064988612E
:100510000868074908400748034908607047000019
:10052000008002400F8130FD00900240233FDEF842
:100530007D0000F80060C10210B540F2194003F0E0
:1005400051FD40F2194003F03BFD00F0DDFB10BD12
:1005500008B500210091009002E00099491E009129
:1005600000990029F9D108BD2DE9F0430446002186
:100570000025002600278C46B4F5E00F0FD1234854
:10058000234B052540F2F4564FF48017DFF88480A2
:10059000C8F81000DFF88080C8F800000FE01F489E
:1005A0001F4B052540F2F456EF0744F2F45CDFF8E8
:1005B0006480C8F80C00DFF86C80C8F800004FF0C9
:1005C0000008DFF86490C9F80080DFF86090C9F88F
:1005D0000080002115E000EB01121760C2F804C092
:1005E00001FB0638C2F80880A5F10108884506D944
:1005F00000EB011808F11008C2F80C8000E0D06090
:10060000491CA942E7D3BDE8F0830000B0000020F8
:10061000C41E002000900240040000206000002062
:100620000001002008000020100000200C00002025
:1006300000B500F07BFD00F093FC00BD70B50346F3
:100640000D4614460022002139480068006800F079
:10065000004008B1002070BD002B37D0344800683E
:10066000008800F4004070BB31480068008800F446
:10067000807040B32E480068008800F4007010B30A
:100680002B4800680068C0F30D41091F2948006825
:1006900000F0007030B126480068007800F02000BB
:1006A00000B1091DA94201D90020D4E704B121807D
:1006B000002205E01E4800688068805C9854521C47
:1006C0008A42F7D302E0FFE70020C4E74FF0004082
:1006D000174E366830601848406900F0800020B13D
:1006E0008020154E70610020B0601148006880883D
:1006F00000F4804028B10E480068C0680C4E30609D
:1007000014E00B480068808800F4004020B10A48DB
:10071000C068074E306009E007480068C0F38406EF
:100720000348006810303044014E3060012092E7E9
:1007300008000020008002400090024070B503468F
:1007400000222F480068006800F0004008B1002037
:1007500070BD40F2F450814201D90020F8E74BB15E
:10076000002205E0985C264E3668B668B054521CEC
:100770008A42F7D322480068416021480068006837
:1007800040F040501E4E366830601D4800680068DA
:1007900040F000401A4E366830601A48406900F058
:1007A00004051848406900F0200405B92CB145EA59
:1007B0000400144E706100207060114800680068E9
:1007C00000F4801028B10E480068C0680C4E3060FC
:1007D00014E00B480068006800F4001020B10948DC
:1007E0000069074E306009E006480068C0F38406DF
:1007F0000348006810303044014E30600120A7E704
:10080000040000200090024010B54FF4406003F057
:10081000C5FB40F6014003F0C1FB40F6024003F087
:10082000BDFB40F6034003F0B9FB40F6064003F081
:10083000B5FB40F6074003F0B1FB40F6084003F07B
:10084000ADFB41F20E1003F0A9FB4FF4000003F0E2
:10085000CFFD0223002219464F4800F07EFD0223FF
:10086000032200214C4800F09FFD042300220221B6
:10087000494800F072FD042303220021464800F09D
:1008800093FD802300220221434800F066FD80236F
:1008900003220021404800F087FD02220B213E4840
:1008A00000F028FD04220B213B4800F023FD8022AC
:1008B0000B21394800F01EFD4FF400630022022195
:1008C000364800F04AFD4FF400630322002133480C
:1008D00000F06AFD4FF48053002202212F4800F0FF
:1008E0003CFD4FF48053032200212C4800F05CFDB6
:1008F0004FF4005300220221284800F02EFD4FF44F
:10090000005303220021254800F04EFD4FF4006201
:100910000B21224800F0EEFC4FF480520B211F48BF
:1009200000F0E8FC4FF400520B211C4800F0E2FC00
:100930000223002219461A4800F00FFD0223032269
:100940000021174800F030FD102300220221144836
:1009500000F003FD102303220021114800F024FDC4
:100960002023002202210E4800F0F7FC202303225E
:1009700000210B4800F018FD02220B21084800F06E
:10098000B9FC10220B21064800F0B4FC20220B21F8
:10099000034800F0AFFC10BD00000240000402401C
:1009A000000802402DE9F74F82B081468A460024B4
:1009B000002500260027A0460020019083460090D5
:1009C00000F00EFA48B9C548FFF7C2FD00F008FA7A
:1009D00018B9009805B0BDE8F08FFFF779FD4F46D4
:1009E000012F5CD100BF01AB01221146002000F0B5
:1009F00063FABDF8040000F00400019008F101085A
:100A0000BDF8040010B9B6488045ECD3B448804521
:100A100001D10098DEE74FF000084FF480500190BC
:100A200001AB00220121022000F046FA8346BBF10F
:100A3000000F01D10098CDE700BF01AB01221146A4
:100A4000002000F039FABDF8040000F02000019009
:100A500008F10108BDF8040010B9A1488045ECD3A5
:100A60009F48804501D10098B4E74FF0000801ABE2
:100A700010220121002000F01FFABDF8040000F050
:100A8000040010B14FF4006700E00027BDF8040037
:100A900000F0020000B11DE047F480471AE007F4BF
:100AA0000060C008019007F48040BDF8041041EADE
:100AB0005000019001AB00220121022000F0FCF95E
:100AC0008346BBF1000F01D1009883E76FF07F40B0
:100AD000FFF73EFD8348046824F4B0443C430460BF
:100AE0000AF4806070B17F48006840F480607D49FE
:100AF00008607D48846924F080640AF080600443C3
:100B0000794884617748406804990843754948608A
:100B10007648007800F00100A8B17448456808469E
:100B200004682E4672480440C043064034430846D9
:100B300004606D4884692E4624F0C00406F44076B3
:100B400044EA960484616948007800F0020040B1EC
:100B500066488668644804686648044034436248CE
:100B600004606248007800F0040040B15F48C66845
:100B70005D4804686048044034435B4804605B4857
:100B8000007800F0080048B15848066956480468E3
:100B90004CF20200844334435348046053480078C5
:100BA00000F0100040B1514846694F4884695348ED
:100BB000044034434C4884614C48007800F02000E5
:100BC00098B14A488569484884692E464C48044093
:100BD000C043064034434448846104682E4624F0F0
:100BE000800406F08006344304604048007800F03A
:100BF000400038B13D48C5693A48C4696FF31004F4
:100C00002C43C4613948007800F08000C0B13748F7
:100C1000056A344884692E464FF641700440864385
:100C20003443304884613048803004682E4624F0D4
:100C3000770406F4EE4644EA16242B48C0F88040B8
:100C40002A48008800F4807018B12848406A254975
:100C500088602648008800F4007018B12348806A34
:100C60002049C8602148008800F4806048B11F48CE
:100C7000C56A1C48446840F2DE7084432C4319481E
:100C800044601A48008800F4006040B11748056BC2
:100C9000144804681B4804402C431248046013485D
:100CA000008800F4805038B11048456B0D48046846
:100CB00024F440042C4304600C48008800F40050E5
:100CC00038B10A48856B0748046824F460242C4333
:100CD00004600120009000987CE60000FFFF8F0078
:100CE000FFFF04000080024000900240883C00208A
:100CF0007FFFFFFDFFFFFEF8FFC001FFE73FDEFDC6
:100D0000FBFFFFFE8FDDFEFF002008490860486002
:100D10008860C860086148618861C861086248628B
:100D20008862C8620863486388637047883C002013
:100D30000A794B7942EA0322084B03441A64CA78C1
:100D400012068B7842EA03424B7842EA03220B7880
:100D50001A43024B03445A6470470000008002406B
:100D600070B50025FFF7E8FB00F0AEF905460DB9B8
:100D7000002070BD01224FF004211046FFF712FE43
:100D800005460DB90020F4E712490020FFF7D0FF17
:100D90004FF4E000FFF7E8FB4FF46020FFF7E4FBBF
:100DA000002405E00C4901EB041000F0D3F8641CAA
:100DB000052CF7D3002407E0084901EB04104FF499
:100DC000400100F0AAF9641C052CF5D3FFF730FCB4
:100DD0002846CEE73000002060000020B000002050
:100DE000F8B500262C48056925F01C05012003F004
:100DF00043F804462948844205D32948844202D254
:100E000045F0080526E02648844205D3254884425B
:100E100002D245F00C051DE02248844203D322484B
:100E2000844200D216E02048844205D31F48844201
:100E300002D245F004050DE01C48844202D31C4850
:100E4000844202D31A48844202D145F0100501E0E1
:100E50003046F8BD104805614FF4004000906B46E5
:100E600000220121022000F027F808B93046F0E7FF
:100E70001048FFF76DFB6B4600220121104600F081
:100E80001BF808B93046E4E7BDF8000000F4004064
:100E900000B901263046DCE700800240002D310118
:100EA000C00E16020087930300E1F50580D1F0081B
:100EB000001C4E0EFFFF04002DE9F04104460D46D4
:100EC00000270020DFF884C0DCF810104FF6C37C48
:100ED00021EA0C014FF4F86C0CEA821C4CEA040C79
:100EE0004FF4784808EAC5284CEA080C4CF0010C8D
:100EF0004CEA0101022C05D1B3F800C0DFF84C80A8
:100F0000C8F814C0DFF844C0CCF8101000BFDFF8F8
:100F10003CC0DCF810C00CF001067F1C1EB1DFF8ED
:100F200030C06745F3D1DFF824C0DCF810C00CF006
:100F3000010CBCF1000F00D101202CB9DFF80CC06E
:100F4000DCF814C0A3F800C0BDE8F08100800240C6
:100F5000FFFF0400416821F000414160704700003C
:100F60000648006840F004000449086004488069AD
:100F700040F0020002498861704700000080024092
:100F8000009002404FF0004026490968086025485B
:100F90000068808800F48040E8B123480068A0B170
:100FA00021480068C0681F4908601F480068006841
:100FB00028B11D48006800681B49086030E01A48E5
:100FC00000681030184908602AE016480068C068B8
:100FD0001449086024E013480068808800F4004049
:100FE00060B11248C0680F4908600F480068B8B186
:100FF0000D48006800680C49086011E00B48006863
:10100000C0F38401074800681030084405490860AF
:101010000548006820B104480068103002490860A3
:1010200070470000080000201000002000900240DF
:1010300000B5002321480068026802F0004008B1B2
:10104000002000BD02F4004028B902F4807010B105
:1010500002F4007018B9FFF795FF0120F1E702F0E4
:10106000200030B102F0010018B1FFF78BFF012022
:10107000E7E702F00040A8B902F4004090B902F49A
:10108000807078B102F4007060B1C2F30D431B1F91
:101090000B48006800F0007068B102F0200050B109
:1010A0001B1D08E007480068401C06490860FFF760
:1010B00069FF0120C5E71846C3E7000008000020CB
:1010C000008002401400002010B5002100200B4BCE
:1010D0001B6843F00103094C236000BF074B1B68EA
:1010E00003F00102491C12B1054B9942F6D1034BA2
:1010F0001B6803F0010303B9012010BD00900240FA
:10110000FFFF040010B50024FFF7D4F9FFF77CFBC4
:10111000FFF726FEC4B2204610BD026822F440024A
:10112000026002680A4302607047000000B5074889
:10113000006840F008000549086000F00BF804481A
:10114000806940F400500249886100BD008002407F
:101150000090024010B500220020094B9B6943F427
:101160008013074CA36100BF054B9B6903F48011FA
:10117000521C11B1034B9A42F6D301B9012010BDA4
:1011800000900240FFFF040006480088401C05490B
:10119000088008460088052801DB002008800148F7
:1011A000007870474200002001462B2048431B4A2C
:1011B00002EBC00090F81A0140B901222B204843ED
:1011C000164B03EBC00080F81A211FE02B20484388
:1011D000124A02EBC00090F81A01401CC2B22B2048
:1011E00048430E4B03EBC00080F81A212B204843E4
:1011F0001A4602EBC00090F81A01072806DD01220A
:101200002B20484303EBC00080F81A212B204843D1
:10121000024A02EBC00090F81A0170475481002086
:101220002DE9F04F85B082468B460026002700202E
:10123000049080460024002503908146CA212B4853
:10124000FEF7E9FF4FF4C9712948FEF7E4FF4CF2BD
:101250005030012104AA254BCDE900210290002243
:101260005946504602F0E2FE0646002E03DC3846A0
:1012700005B0BDE8F08F1D48B0F80080B8F1000F50
:1012800001D13846F4E700242CE01848801C00EB1C
:101290004400008803904CF25030012104AA144B02
:1012A000CDE90021029000225046039902F0BEFED3
:1012B0000646002E01DC3846DAE70D48B0F800900B
:1012C000B9F1000F01D13846D2E7002506E0084801
:1012D000801C10F825000744681C85B24D45F6D3E4
:1012E000601C84B24445D0DB3846C1E7F87E00205C
:1012F000C27F0020F0B503461C6A5D6A00200DE045
:101300000126864016403EB187000F26BE40B443FA
:10131000860001FA06F63443461CB0B20828EFD323
:10132000082011E00126864016405EB1A0F10806B3
:10133000B7000F26BE40B543A0F10806B60001FA7B
:1013400006F63543461CB0B21028EBD31C625D6232
:10135000F0BD8162704781617047F0B504460D466B
:1013600016462168E268002019E0012787401F40E7
:101370009FB14FEA400C032707FA0CF7B943470027
:1013800005FA07F739434FEA400C032707FA0CF731
:10139000BA43470006FA07F73A43471CB8B2102889
:1013A000E3D32160E260F0BDF0B50C461546012C98
:1013B00003D146681E43466002E046689E4346608D
:1013C000826800210DE001268E401E403EB14F0094
:1013D0000326BE40B2434E0005FA06F632434E1CC9
:1013E000B1B21029EFD38260F0BDFEF7EFFF01E04C
:1013F00003F08CF8FCE700002DE9FF5F804689468A
:1014000016469A46DDF838B000BFFFF7BDFE044629
:101410002548A0F8244B0020434610222146CDE960
:10142000016ACDF800900390012002F0EDFA054624
:1014300040F2F52014FB00F01C4A02EB40015B4631
:101440002A46204600F078FA0746012F23D140F2C1
:10145000F5206043164901EB40011031A5F112005F
:101460000A5C40F2F5206043114901EB4001103164
:10147000A5F11100085C42EA0027A5F11C0240F228
:10148000F52060430A4B03EB400000F11A0130469F
:10149000FEF7A8FE01E04FF0FF37204600F014FAF7
:1014A000384604B0BDE8F09F0473002004430020D8
:1014B000966000202DE9FF5F8046894616469A46D1
:1014C000DDF838B000BFFFF75FFE04462548A0F8FE
:1014D000244B0020434610222146CDE9016ACDF875
:1014E00000900390022002F08FFA054640F2F520AA
:1014F00014FB00F01C4A02EB40015B462A462046E2
:1015000000F01AFA0746012F23D140F2F52060437C
:10151000164901EB40011031A5F112000A5C40F2BE
:10152000F5206043114901EB40011031A5F1110094
:10153000085C42EA0027A5F11C0240F2F520604356
:101540000A4B03EB400000F11A013046FEF74AFE59
:1015500001E04FF0FF37204600F0B6F9384604B0FE
:10156000BDE8F09F04730020044300209660002033
:101570002DE9FF5F8046894616469A46DDF838B069
:1015800000BFFFF701FE04462548A0F8244B0020C9
:10159000434610222146CDE9016ACDF80090039020
:1015A000072002F031FA054640F2F52014FB00F066
:1015B0001C4A02EB40015B462A46204600F0BCF97B
:1015C0000746012F23D140F2F5206043164901EB75
:1015D00040011031A5F112000A5C40F2F520604391
:1015E000114901EB40011031A5F11100085C42EAFC
:1015F0000027A5F11C0240F2F52060430A4B03EBE3
:10160000400000F11A013046FEF7ECFD01E04FF01A
:10161000FF37204600F058F9384604B0BDE8F09F87
:101620000473002004430020966000202DE9FF5F32
:101630008046894616469A46DDF838B000BFFFF767
:10164000A3FD04462548A0F8244B00204346102261
:101650002146CDE9016ACDF800900390082002F000
:10166000D3F9054640F2F52014FB00F01C4A02EBCA
:1016700040015B462A46204600F05EF90746012FEE
:1016800023D140F2F5206043164901EB40011031AF
:10169000A5F112000A5C40F2F5206043114901EB0C
:1016A00040011031A5F11100085C42EA0027A5F1C4
:1016B0001C0240F2F52060430A4B03EB400000F1AE
:1016C0001A013046FEF78EFD01E04FF0FF3720464D
:1016D00000F0FAF8384604B0BDE8F09F047300202B
:1016E00004430020966000202DE9FF5F8046894674
:1016F00016469A46DDF838B000BFFFF745FD0446B0
:101700002548A0F8244B0020434610222146CDE96D
:10171000016ACDF800900390042002F075F90546A7
:1017200040F2F52014FB00F01C4A02EB40015B463E
:101730002A46204600F000F90746012F23D140F247
:10174000F5206043164901EB40011031A5F112006C
:101750000A5C40F2F5206043114901EB4001103171
:10176000A5F11100085C42EA0027A5F11C0240F235
:10177000F52060430A4B03EB400000F11A013046AC
:10178000FEF730FD01E04FF0FF37204600F09CF8F7
:10179000384604B0BDE8F09F0473002004430020E5
:1017A000966000202DE9FF5F8046894616469A46DE
:1017B000DDF838B000BFFFF7E7FC04462548A0F885
:1017C000244B0020434610222146CDE9016ACDF882
:1017D00000900390052002F017F9054640F2F5202D
:1017E00014FB00F01C4A02EB40015B462A462046EF
:1017F00000F0A2F80746012F23D140F2F520604304
:10180000164901EB40011031A5F112000A5C40F2CB
:10181000F5206043114901EB40011031A5F11100A1
:10182000085C42EA0027A5F11C0240F2F520604363
:101830000A4B03EB400000F11A013046FEF7D2FCE0
:1018400001E04FF0FF37204600F03EF8384604B084
:10185000BDE8F09F04730020044300209660002040
:1018600010B5002443F6F4311448FEF7D4FC00BF51
:1018700020E040F2F5206043104901EB40001049A0
:101880000A6802608988818040F2F52060430B4934
:1018900001EB40000B490A68C0F8062089884181A5
:1018A0004AF2884140F2F5206043044A02EB4000CE
:1018B0008181641C052CDCDB10BD0000044300208A
:1018C000360000203C00002010B5044640F2F5210F
:1018D0006143164A02EB410101F1100040F2DA5176
:1018E000FEF799FC40F2F5216143114A02EB4101F8
:1018F00001F1100040F2DA51FEF78DFC00200D4995
:10190000085504EB8400C83901EBC0000021416197
:101910008161818304EB84000649C83901EBC00072
:10192000002101604160018110BD000004430020DE
:1019300096600020F27E00202DE9F05F0446934679
:101940009A4600BF00F0A2F90746884617EB0A0541
:1019500048F1000600BF40F2F52161431E4A02EB48
:101960004100594600F0B5F98146B9F1010F28D17F
:1019700040F2F5216143194A02EB41004FF47A72BB
:1019800040F2DA5100F086F98146B9F1010F18D121
:1019900040F2F5206043114901EB400080894AF292
:1019A000884188420BD140F2F52060430B4901EB9E
:1019B0004000407CA04202D14FF0010901E04FF00D
:1019C0000009B9F1000F04D100F060F9401BB141EA
:1019D000C1D34846BDE8F09F044300209660002034
:1019E00010B501F03FF901F041FB01F071FB00F08F
:1019F0002DFF00F017F801F0F1FE00F03FFF01228B
:101A00006421074801F0A8FB0821012002F088F9B1
:101A100044F620620121084601F032F910BD0000B1
:101A2000C48E00202DE9FC470027012400200190EE
:101A300000268046002500BF1DE12B206043914910
:101A400001EBC000B0F8389044F62060022301AAF0
:101A5000082100904846FFF747FE0746002F02DCAA
:101A60000020BDE8FC87BDF8040000F00400042855
:101A700008D101212B206043824A02EBC000A0F86C
:101A80003C1107E000212B2060437E4A02EBC0009E
:101A9000A0F83C1144F62060022301AA4FF488719B
:101AA00000904846FFF720FE0746002F01DC00208B
:101AB000D7E7BDF80400019000212B206043714A54
:101AC00002EBC00080F83F112B20604302EBC00006
:101AD00080F84011BDF8040000F40070B0F5007FFC
:101AE0001DD12B206043114601EBC00090F83F014F
:101AF000401CC1B22B20604302EBC00080F83F11B4
:101B00002B206043114601EBC00090F8400140F0EB
:101B100001012B20604302EBC00080F84011BDF8AA
:101B2000040000F40060B0F5006F1ED12B2060436C
:101B3000544901EBC00090F83F01401CC1B22B207A
:101B40006043504A02EBC00080F83F112B206043F5
:101B5000114601EBC00090F8400140F002012B203B
:101B6000604302EBC00080F84011BDF8040000F4AF
:101B70000050B0F5005F1ED12B206043414901EBBE
:101B8000C00090F83F01401CC1B22B2060433D4A89
:101B900002EBC00080F83F112B206043114601EB9F
:101BA000C00090F8400140F004012B20604302EB9C
:101BB000C00080F84011BDF8040000F40040B0F50A
:101BC000004F1ED12B2060432E4901EBC00090F83E
:101BD0003F01401CC1B22B2060432A4A02EBC000E7
:101BE00080F83F112B206043114601EBC00090F8B4
:101BF000400140F008012B20604302EBC00080F858
:101C0000401100212B2060431E4A02EBC00080F8E7
:101C10003E11012C2DDD0026601E1FFA80F800BF4A
:101C20002B2008FB00F0174901EBC00090F83F5152
:101C3000012D01D1701E06B2032D01D1B01C06B2D8
:101C4000042D01D1F01C06B2012E01DB012D02DCB6
:101C5000B8F1010F07D12B2060430A4A02EBC00004
:101C600080F83E8104E0A8F101001FFA80F8D7E770
:101C700000BF601C84B20448007884427FF7DDAE68
:101C80003846EEE6548100204400002010B502F0F2
:101C9000EDF810BD2DE9F05F82468B4614464FF0FB
:101CA0000009FFF7F3FF074688463D1948F1000693
:101CB00000BF59465046FEF7CFFB8146B9F1000FF1
:101CC00004D1FFF7E3FF401BB141F2D34846BDE822
:101CD000F09F70B504460D4629462046FEF7DFFB0F
:101CE00070BD10B504462046FEF7ACFB10BD0000E9
:101CF0002DE9F04782460D4616461F4640244FF018
:101D000000084FF0000900BF44440423124A214652
:101D1000504600F007FB104800780F49497840EA28
:101D200001290D4880780C49C97840EA0128A41C93
:101D3000A94503D04FF6FF708145E5D14FF6FF70FE
:101D4000854203D14FF0FF30BDE8F0873460A7F83B
:101D500000800120F8E70000CE8F00207CB505460A
:101D600000200190009000246B4601AA1E21284605
:101D7000FFF7BEFF0446002C02DC4FF0FF307CBDB5
:101D8000BDF8000043000C4A2846019900F0CAFA49
:101D90000446002C02DC4FF0FF30F0E72022064919
:101DA0000648FEF71FFA05488089044988810846DD
:101DB000008A08822046E2E7CE8F00203C8F002078
:101DC00070B505460024002614213848FEF723FA92
:101DD00004260223354A3146284600F0A3FA044679
:101DE000002C01DC204670BD304800782F4949782E
:101DF00040EA01202E490880142614212B48FEF7C2
:101E00000AFA1223294A3146284600F08BFA044682
:101E1000002C01DC2046E6E7244800782349497875
:101E200040EA012022494880204880781F49C9782B
:101E300040EA01201E4988801C4800791B494979E5
:101E400040EA01201A49C880184880791749C979A1
:101E500040EA0120164908811448007A1349497A5A
:101E600040EA0120124948811048807A0F49C97A16
:101E700040EA01200E4988810C48007B0B49497BD0
:101E800040EA01200A49C8810848807B0749C97B8C
:101E900040EA0120064908820448007C0349497C45
:101EA00040EA01200249488220469CE7CE8F00206C
:101EB000288F00207CB50646002001900090002469
:101EC00000256B4601AA29213046FFF711FF054680
:101ED000002D01DC601E7CBD002429E0194800783B
:101EE000401C184908700823174A3046019900F031
:101EF00019FA0546002D02DC4FF0FF30EBE71348DE
:101F000000EBC40010490A680260496841600F484C
:101F100030F834000D4921F83400084600EBC400C5
:101F2000408801EBC40148800198001D0190641CA9
:101F3000BDF80000C11700EB9171B4EBA10FCDDB30
:101F40002846C8E745000020CE8F00208E8F002055
:101F50002DE9FC41804600200190009000260027DA
:101F6000002400256B4601AA0A214046FFF7C0FE67
:101F70000746002F02DC601EBDE8FC812648C078C1
:101F800010B94FF0FF30F7E72348C67801210198D8
:101F900001EB400084B2012639E0611002231F4AA0
:101FA000404600F0BFF904F0010010B11B4845782D
:101FB00001E01A480578601C84B21748C078B04226
:101FC00021D132211648FEF726F904F0010068B14C
:101FD00061106B1C114A404600F0A4F907462A46DE
:101FE0000E49491C0E48FEF7FDF80BE061106B1C12
:101FF0000A4A404600F096F907462A46074908482B
:10200000FEF7F0F804E0701CC6B2601984B2C4E7B1
:1020100000BF3846B0E700003C8F0020CE8F002084
:102020005C8F00202DE9FC4105460024002600209D
:1020300001902B206843174901EBC000078F022055
:10204000019000BF44F62060012301AA4FF4A06173
:1020500000903846FFF7A6FB0446002C03DC304610
:10206000761C0328EEDB0020019000BF44F62060C0
:10207000012301AA4FF4A06100903846FFF792FBBC
:102080000446002C03DC3046761C0328EEDB204699
:10209000BDE8FC81548100202DE9FC410446002567
:1020A00000272B2060430D4901EBC000068F012063
:1020B000019000BF44F62060012301AA4FF4A06103
:1020C00000903046FFF76EFB0546002D03DC3846D6
:1020D0007F1C0328EEDB2846BDE8FC8154810020EC
:1020E0002DE9F74F8AB089462B210A9848438C493D
:1020F00001EBC000008F089000200790002482466A
:1021000083464FF480700490FFF7C0FD0746884671
:1021100044F62062BD1848F10006002102910391A7
:102120000020019000BFBAF100000AF1010A03D0BB
:102130004FF49670FFF7D5FD44F62060022307AAFE
:1021400040F2025100900898FFF7CEFA0446BDF81D
:102150001C000790002C04DDBDF81C0000F40040BA
:1021600020B1FFF793FD401BB141DCD3002C04DD0F
:10217000BDF81C0000F4004020B14FF0FF300DB05E
:10218000BDE8F08FBDF81C00C0F3801B2B210A981E
:102190004843634901EBC00080F819B1BDF81C0049
:1021A00000F4C040A0B100200790BDF81C000790CB
:1021B00044F62060022307AA40F2025100900898DA
:1021C000FFF7F0FA0446002C02DC4FF0FF30D6E7B0
:1021D0004FF4807004900498C0B28DF814000498F5
:1021E000000A8DF8150009F0FF008DF816004FEA7F
:1021F00019208DF817004FEA19408DF818004FEAA2
:1022000019608DF819004FF0000A00BF44F62060F5
:10221000062305AA40F2025100900898FFF7C2FA7F
:102220000446002C04DC50460AF1010A0328EDDBC9
:10223000002C02DC4FF0FF30A1E74FF0000AFFF75F
:1022400025FD0746884644F62063FD1848F1000640
:1022500000BFBAF100000AF1010A03D04FF49670F2
:10226000FFF73FFD44F62060022307AA40F2025127
:1022700000900898FFF738FA0446BDF81C00079054
:10228000002C04DDBDF81C0000F4004020B1FFF775
:10229000FDFC401BB141DCD3002C04DDBDF81C006B
:1022A00000F4004010B14FF0FF3068E7BBF1000FC1
:1022B0001BD04FF0000A00BF44F62060082302AA9A
:1022C0004FF4A16100900898FFF70EFA0446002C25
:1022D00004DC50460AF1010A0328EDDBDDE90221A6
:1022E0000C98C0E90021204649E74FF0000A00BFE2
:1022F00044F62060042301AA4FF4A16100900898DD
:10230000FFF7F2F90446002C04DC50460AF1010AFA
:102310000328EDDB00220C99019805C120462EE729
:10232000548100202DE9FC5F8246884615461E46F2
:1023300000240027A146A3460021009101915046A8
:10234000FFF770FE8146B9F1000F02DC601EBDE8A8
:10235000FC9F002491E06A4641465046FFF7C0FECC
:102360008146B9F1000F02DC4FF0FF30EFE72B2080
:102370000AFB00F0454901EBC00090F81901002864
:1023800047D0301B082811D200270BE0E119009834
:102390006854DDE90001000A40EA0160090ACDE95C
:1023A00000017F1C301BB842F0D82DE00098285562
:1023B000DDE90010020642EA1120C1B2601C295476
:1023C000DDE90010020442EA1140C1B2A01C295408
:1023D000DDE90001000E40EA0120C1B2E01C2954F1
:1023E0000198C1B2201D29540198C0F30720C1B241
:1023F000601D29540198C0F30740C1B2A01D2954A3
:102400000198010EE01D29544FF0080B08F1040853
:1024100032E0301B042811D200270BE0E1190098AC
:102420006854DDE90001000A40EA0160090ACDE9CB
:1024300000017F1C301BB842F0D819E000982855E5
:10244000DDE90010020642EA1120C1B2601C2954E5
:10245000DDE90010020442EA1140C1B2A01C295477
:10246000DDE90010020242EA1160C1B2E01C295409
:102470004FF0040B08F102085C44B442FFF46BAF68
:102480005046FFF709FE8146484660E75481002028
:1024900010B50446FFF7E4F9FEF734FE10BD000066
:1024A0002DE9F04385B005460C460027B94600BF2C
:1024B0002B206843424901EBC000B0F838802B2044
:1024C000684301EBC000983000EB04100668002060
:1024D0000190029003900490F0B28DF80400300A4D
:1024E0008DF80500300C8DF80600300E8DF80700D1
:1024F0002B20684301EBC000983000EB0410868865
:10250000F0B28DF80800300A8DF809002B206843DE
:1025100001EBC000983000EB0410007A8DF80A003F
:102520002B20684301EBC000983000EB0410407A88
:102530008DF80B002B20684301EBC000983000EBB6
:102540000410C688F0B28DF80C00300A8DF80D002A
:102550002B20684301EBC000983000EB0410807A18
:102560008DF80E002B20684301EBC000983000EB83
:102570000410C07A8DF80F002B20684301EBC000D7
:10258000983000EB0410007B8DF8100000BF44F67B
:10259000206000904FF4C06000EB0411102301AAEA
:1025A0004046FFF7FFF80746002F04DC484609F1D4
:1025B00001090328EBDB384605B0BDE8F0830000D5
:1025C0005481002030B52B224243484B03EBC2021A
:1025D00098322B234343454D05EBC30393F8183141
:1025E00002EB03120C6814608C882B2242432B46AA
:1025F00003EBC20298322B23434305EBC30393F84A
:10260000183102EB03129480CC882B2242432B46D4
:1026100003EBC20298322B23434305EBC30393F829
:10262000183102EB0312D4800C7A2B2242432B4642
:1026300003EBC20298322B23434305EBC30393F809
:10264000183102EB031214724C7A2B2242432B46B0
:1026500003EBC20298322B23434305EBC30393F8E9
:10266000183102EB031254728C7A2B2242432B4610
:1026700003EBC20298322B23434305EBC30393F8C9
:10268000183102EB03129472CC7A2B2242432B4670
:1026900003EBC20298322B23434305EBC30393F8A9
:1026A000183102EB0312D4720C7B2B2242432B46CF
:1026B00003EBC20298322B23434305EBC30393F889
:1026C000183102EB031214732B2242432B4603EB07
:1026D000C20292F81821521CD3B22B2242432C463C
:1026E00004EBC20282F8183130BD00005481002092
:1026F0007CB50446002500262046FFF761FB064610
:10270000002E01DC30467CBD4B4801882B20604305
:102710004A4A02EBC0004187474841882B2060436A
:1027200002EBC0008187444881882B20604302EB84
:10273000C000C1874048C1882B20604302EBC00025
:10274000A0F840103C4801892B20604302EBC000F8
:10275000A0F84210384841892B20604302EBC000AA
:10276000A0F84410344881892B20604302EBC0005C
:10277000A0F846103048C1892B20604302EBC0000E
:10278000A0F848102C48018A2B20604302EBC000BF
:10279000A0F84A102046FFF7E1FA0646002E01DCB9
:1027A0003046B0E72046FFF7D3FB0646002E01DC9B
:1027B0003046A8E72B216143204A02EBC1003222B8
:1027C0001F49FDF70FFD2046FFF774FB0646002E5C
:1027D00001DC304697E7002528E0002000900190BA
:1027E000184800EBC5000088ADF80000154800EB64
:1027F000C5004088ADF80200124800EBC500007922
:102800008DF804000F4800EBC50081799DF80600A3
:1028100061F300008DF806000A4800EBC500C2799C
:102820006946204601F01AFA681CC5B206480078CD
:102830008542D2DB304666E7288F00205481002095
:102840005C8F00208E8F00204500002070B5012491
:102850000026002500BF09E02046FFF749FF054696
:10286000002D01DC284670BD601C84B2024800784F
:102870008442F1DD2846F6E74400002010B501242B
:1028800000BF37E041F613412046FEF7C9FC2B217B
:1028900061431B4A02EBC101C1F81C0141F6124120
:1028A0002046FEF7BDFC2B216143154A02EBC10116
:1028B000C1F820012B206043114601EBC000D0F885
:1028C0001C01C01DC1082B20604302EBC000C0F8F2
:1028D00024112B206043114601EBC000D0F82001E9
:1028E000C01DC1082B20604302EBC000C0F82811B6
:1028F000601C84B2034800788442C3DD10BD000030
:1029000054810020440000202DE9F74F8AB0814611
:10291000924600BF4FF0FF340020099008900790C6
:10292000069005900490039000BF00BF2B2009FB88
:1029300000F0754901EBC000008F02904FF0000BD2
:1029400039E02B2009FB00F06F4901EBC0008C300F
:1029500010F80B0002282AD12B2009FB00F001EB14
:10296000C0004C3030F83B00B0F5805F1FDB2B20FF
:1029700009FB00F001EBC0004C3000EBCB004088BD
:10298000002814DD5C462B2009FB00F001EBC000A1
:102990004C3030F8340004902B2009FB00F001EBA0
:1029A000C0004C3000EBC400408803900DE00BF1F8
:1029B000010000F0FF0B2B2009FB00F0524901EB56
:1029C000C00090F894005845BBDC00BF002C03DA2F
:1029D00000200DB0BDE8F08FFFF758F90746884694
:1029E00017EB0A0548EBEA7600BF00BF079800F135
:1029F0000101079118B14FF49670FFF772F90020AA
:102A0000069040F6050000EBC40081B2022306AA3E
:102A1000CDF800A00298FEF767FE0990BDF81800F7
:102A200006900998002804DDBDF8180000F00800A1
:102A300020B9FFF72BF9401BB141D7D309980028E3
:102A400004DDBDF8180000F0080008B90020C0E758
:102A5000CDF800A0DDE903310B9A0298FEF744FEA1
:102A600008900898002844DCBDF818004040069003
:102A7000BDF81800069040F6050000EBC40081B2D6
:102A8000022306AACDF800A00298FEF78BFE09905B
:102A90000020079000BF0798411C079118B14FF420
:102AA0009670FFF71EF90020059040F6070000EB36
:102AB000C40081B2012305AACDF800A00298FEF758
:102AC00013FE09900998002804DD9DF8140000F019
:102AD000020020B1FFF7DAF8401BB141DBD30998BF
:102AE000002804DD9DF8140000F0020008B9002061
:102AF0006FE70898002805DCFFF7C8F8401BB141D4
:102B0000FFF473AF089864E7548100202DE9F74F74
:102B100088B00446924600BF4FF0FF3B002007906C
:102B2000069005900490039000BF00BF2B206043E7
:102B30004B4901EBC000008F02904FF0000934E0D8
:102B40002B206043464901EBC0008C3010F809008F
:102B5000012826D12B20604301EBC0004C3030F817
:102B60003900B0F5805F1CDB2B20604301EBC00017
:102B70004C3000EBC9004088002812DDCB462B20EA
:102B8000604301EBC0004C3030F8390004902B203A
:102B9000604301EBC0004C3000EBC900408803905B
:102BA0000CE009F1010000F0FF092B2060432C49E3
:102BB00001EBC00090F894004845C1DC00BFBBF1B8
:102BC000000F04DA4FF0FF300BB0BDE8F08FFFF7D5
:102BD0005DF805460E4615EB0A0746EBEA7800BF9E
:102BE000069800F10101069118B14FF49670FFF7B5
:102BF00078F80020059040F6050000EBCB0081B28C
:102C0000022305AACDF800A00298FEF76DFD0790FB
:102C1000BDF8140005900798002804DDBDF81400E5
:102C200000F0080028B1FFF731F8C01B71EB080174
:102C3000D6D30798002804DDBDF8140000F0080082
:102C400010B14FF0FF30BFE7CDF800A0DDE9033150
:102C5000099A0298FEF7A6FD07900798B4E70000CE
:102C60005481002010B50020034908704FF45761CB
:102C70000248FDF7D0FA10BD440000205481002026
:102C80002DE9F74F8AB08B464FF000090026002748
:102C900001244FF0000A4FF000080020099008902E
:102CA000079006900A98012832D100BF2BE02B2014
:102CB0006043E64901EBC000D0F8380160B12B2039
:102CC000604301EBC000D0F838612B20604301EB7A
:102CD000C000D0F830711AE02B206043DB4901EBD3
:102CE000C000D0F8340160B12B20604301EBC0007C
:102CF000D0F834612B20604301EBC000D0F82C7178
:102D000005E0601C84B2D24800788442CFDD3CE00C
:102D1000012416E02B206043CC4901EBC000D0F821
:102D2000380160B12B20604301EBC000D0F838615E
:102D30002B20604301EBC000D0F8307105E0601C2F
:102D400084B2C34800788442E4DD00BFEEB90124B8
:102D500016E02B206043BD4901EBC000D0F83401E0
:102D600060B12B20604301EBC000D0F834612B2010
:102D7000604301EBC000D0F82C7105E0601C84B208
:102D8000B34800788442E4DD00BF012423E02B2017
:102D90006043AE4901EBC000D0F8280140B12B20C0
:102DA000604301EBC000B0F8280150441FFA80FADC
:102DB0002B206043A54901EBC000D0F8240140B1AD
:102DC0002B20604301EBC000B0F8240150441FFAEF
:102DD00080FA601C84B29E4800788442D7DD16B128
:102DE000BAF1000F03D100200DB0BDE8F08FFEF75F
:102DF000CBF905469748A0F8245B01203346102202
:102E00002946CDE9007A02900C2000F029FD804689
:102E1000012411E02B2060438C4901EBC000B0F885
:102E20003C01012806D12B20604301EBC000008F3C
:102E3000069005E0601C84B2854800788442E9DD94
:102E400000BF01200821844A4FF41163CDE900320C
:102E5000CDE90210424629460E20069B00F0D4FD23
:102E60000990BBF1000F46D0012008217B4A4FF4A6
:102E70001963CDE90032CDE9021029460420069BF2
:102E8000099A00F0C1FD07900798089001242DE0F1
:102E90002B2060436D4901EBC000008F06906C4809
:102EA0000078844210D00120062104AA4FF49873C0
:102EB000CDE90032CDE9021029460420DDE90632D1
:102EC00000F0A2FD07900FE00020062104AA4FF4B5
:102ED0009873CDE90032CDE9021029460420DDE9DE
:102EE000063200F091FD0790601C84B258480078CB
:102EF0008442CDDD0FE000200821584A4FF41963C9
:102F0000CDE90032CDE9021029460420069B099A3A
:102F100000F07AFD079040F2F5206843504A02EB3A
:102F2000400128460C9B079AFEF706FD8146B9F141
:102F3000010F7DD140F2F52068434A4901EB400181
:102F40001031A8F112000A5C40F2F52068434549AF
:102F500001EB40011031A8F11100085C42EA0029A0
:102F6000A8F11C0240F2F52068433E4B03EB400001
:102F700000F11A013846FDF735F940F2F5206843B3
:102F8000384901EB4000103008F10A010144324891
:102F90000A6802604968416040F2F520684331499F
:102FA00001EB4001103109980A3008442B490268AE
:102FB0000A60406848600846D0E90030264A06CAE0
:102FC000591A60EB0200284AC2E90010BBF1000F59
:102FD00037D001242EE040F2F5206843214901EB6F
:102FE00040011031601E00EBC00208980A3000EB6F
:102FF00042000844016804918088ADF814009DF8EF
:1030000010009DF8111040EA01212B2060430F4A67
:1030100002EBC00041869DF814009DF8151040EAAF
:1030200001212B20604302EBC000C186601C00E040
:1030300005E084B2064800788442CCDD01E04FF020
:1030400000092846FEF740FC4846CDE654810020A2
:10305000440000200473002050000020580000208D
:103060000443002096600020480000201CB5002486
:103070000020019044F62060012301AA40F20311D0
:1030800000900020FEF7D2FA1120019044F6206053
:10309000012301AA4FF4907100900020FEF7C6FAB8
:1030A00044F62060012301AA002100900846FEF7A3
:1030B0005FFA0446002C06DD0A2C02DA03490C7084
:1030C00001E000201CBD2046FCE700004400002079
:1030D0007CB50124002600200190002500BF30E0CF
:1030E000C4F1010086B204F580500190BDF80400DF
:1030F000019044F62060022301AA1021009030467E
:10310000FEF7D8F90546002D01DC28467CBD0020DD
:10311000019044F62060022301AA1021009030465D
:10312000FEF76AF90546002D01DC2846EEE7BDF8FA
:1031300004102B206043064A02EBC0000187601C8C
:10314000C4B2044800788442CADD2846DEE70000A5
:1031500054810020440000202DE9F04105460E4630
:1031600014460027012C05D13146284600F00AF804
:10317000074604E03146284600F088F90746BDE8D6
:10318000F08100002DE9FF4706468846012400270C
:10319000002506EB08091EB9002004B0BDE8F08741
:1031A00041463046FDF737F8012464E1002537E158
:1031B0002B206043B34901EBC0008C30405D0328F5
:1031C0007ED10020009001900290039000962B2069
:1031D000604301EBC0004C3000EBC50041882B2060
:1031E0006043A84A02EBC000D0F82801814216D003
:1031F0002B206043114601EBC000D0F8280170B1CC
:103200002B20604301EBC000B0F8280181B22B20D5
:10321000604302EBC0004C3000EBC50041802B2026
:103220006043984901EBC0004C3000EBC50040887A
:1032300048B101212B206043924A02EBC0004C3080
:1032400000EBC50081712B2060438E4901EBC0006B
:103250004C3000EBC5004088ADF804002B206043E3
:1032600001EBC0004C3030F83500ADF8060000200E
:103270008DF8080007208DF8090000208DF80A005D
:1032800002208DF80B002B20604301EBC0004C3076
:1032900000EBC50080798DF80C0069462046FFF7E9
:1032A00091F99DF80C00A8B12B206043754901EB02
:1032B000C000C0F830612B20604301EBC00000E08B
:1032C00011E0C0F83861BDF8040006444E4501D94C
:1032D000002062E72946204600F06CFC0746002FDC
:1032E00001DC384659E72B206043664901EBC000FA
:1032F0008C30405D04287CD1002000900190029029
:10330000039000962B20604301EBC0004C3000EB93
:10331000C50041882B2060435A4A02EBC000D0F818
:103320002801814216D02B206043114601EBC000DA
:10333000D0F8240170B12B20604301EBC000B0F83D
:10334000240181B22B20604302EBC0004C3000EB23
:10335000C50041802B2060434A4901EBC0004C303E
:1033600000EBC500408848B101212B206043454A4D
:1033700002EBC0004C3000EBC50081712B20604394
:10338000404901EBC0004C3000EBC5004088ADF86F
:1033900004002B20604301EBC0004C3030F83500B6
:1033A000ADF8060000208DF8080007208DF8090010
:1033B00000208DF80A0001208DF80B002B206043BF
:1033C00001EBC0004C3000EBC50080798DF80C009B
:1033D00069462046FFF7F6F89DF80C00A8B12B20AF
:1033E0006043284901EBC000C0F82C612B206043EA
:1033F00000E013E001EBC000C0F83461BDF8040048
:1034000006444E4501D90020C7E62946204600F073
:10341000D1FB0746002F01DC3846BEE6681CC5B26A
:103420002B206043174901EBC00090F89400A8429C
:103430003FF7BEAE00250AE029462046FFF730F8E8
:103440000746002F01DC3846A7E6681CC5B22B20D2
:1034500060430C4901EBC00090F81801A842EBDC76
:103460000421204600F05CFC0746002F01DC3846B2
:1034700093E6601C84B20448007884427FF796AEDD
:1034800038468AE654810020440000202DE9FF4799
:103490000646884601240027002506EB08091EB9C8
:1034A000002004B0BDE8F08741463046FCF7B3FE8B
:1034B0000124AAE000259CE02B206043C54901EBD4
:1034C000C0008C30405D03287ED100200090019028
:1034D0000290039000962B20604301EBC0004C301B
:1034E00000EBC50041882B206043BA4A02EBC000C4
:1034F000D0F82801814216D02B206043114601EB01
:10350000C000D0F8280170B12B20604301EBC0004F
:10351000B0F8280181B22B20604302EBC0004C3090
:1035200000EBC50041802B206043AA4901EBC0009D
:103530004C3000EBC500408848B101212B2060438E
:10354000A44A02EBC0004C3000EBC50081712B2077
:103550006043A04901EBC0004C3000EBC50040883F
:10356000ADF804002B20604301EBC0004C3030F874
:103570003500ADF8060000208DF8080007208DF812
:10358000090000208DF80A0002208DF80B002B2086
:10359000604301EBC0004C3000EBC50080798DF832
:1035A0000C0069462046FFF70DF89DF80C00A8B105
:1035B0002B206043874901EBC000C0F830612B200D
:1035C000604301EBC00000E011E0C0F83861BDF8D5
:1035D000040006444E4501D9002062E729462046F2
:1035E00000F0E8FA0746002F01DC384659E7681C6E
:1035F000C5B22B206043774901EBC00090F89400DE
:10360000A8423FF759AF601C84B2734800788442E7
:103610007FF750AF0124AAE000259CE02B206043F7
:103620006C4901EBC0008C30405D04287ED1002045
:10363000009001900290039000962B20604301EBD4
:10364000C0004C3000EBC50041882B206043614A2C
:1036500002EBC000D0F82801814216D02B20604335
:10366000114601EBC000D0F8240170B12B2060435B
:1036700001EBC000B0F8240181B22B20604302EBC3
:10368000C0004C3000EBC50041802B206043514905
:1036900001EBC0004C3000EBC500408848B101216F
:1036A0002B2060434B4A02EBC0004C3000EBC500BE
:1036B00081712B206043474901EBC0004C3000EB87
:1036C000C5004088ADF804002B20604301EBC0002A
:1036D0004C3030F83500ADF8060000208DF80800B9
:1036E00007208DF8090000208DF80A0001208DF8D0
:1036F0000B002B20604301EBC0004C3000EBC500F9
:1037000080798DF80C0069462046FEF75BFF9DF836
:103710000C00A8B12B2060432E4901EBC000C0F87B
:103720002C612B20604301EBC00000E011E0C0F8E9
:103730003461BDF8040006444E4501D90020B0E6CE
:103740002946204600F036FA0746002F01DC3846AD
:10375000A7E6681CC5B22B2060431E4901EBC000E0
:1037600090F89400A8423FF759AF601C84B21A4801
:10377000007884427FF750AF002520E000250AE062
:1037800029462046FEF78CFE0746002F01DC38460E
:1037900087E6681CC5B22B2060430E4901EBC000D0
:1037A00090F81801A842EBDC0421204600F0B8FA9A
:1037B0000746002F01DC384673E6681CC5B22B2093
:1037C0006043044901EBC00090F89400A842D5DCA6
:1037D000384666E6548100204400002070B501247C
:1037E0000026002500BF31E000251BE02B206043B0
:1037F000194901EBC0008C30405D012807D02B2017
:10380000604301EBC0008C30405D022808D129469E
:10381000204600F0CFF90646002E01DC304670BD90
:10382000681CC5B22B2060430B4901EBC00090F827
:103830009400A842DADC1221204600F071FA064614
:10384000002E01DC3046EAE7601C84B203480078B1
:103850008442C9DD3046E2E7548100204400002064
:103860002DE9FF5F07460C4615469846DDE90F6BCC
:10387000DDF838A000BF05F10A0030440E3840F2F0
:10388000F52161435E4A02EB4101C98960F30A01F7
:1038900040F2F520604302EB4000C18140F2F52088
:1038A0006043114601EB4000C07B20F0080140F26C
:1038B000F520604302EB4000C17340F2F520604305
:1038C000114601EB4000C07B20F0F000103040F2C8
:1038D000F521614302EB4101C8738DF804708DF846
:1038E0000540CDF806809DF80B0020F038018DF8DA
:1038F0000B109DF80B0020F040018DF80B109DF887
:103900000B006BF3C7108DF80B00BDF80A0066F3CF
:103910000A00ADF80A00BDF80A00ADF80A00002060
:10392000ADF80C0040F2F5206043114601EB400079
:1039300028440199016002994160BDF80C10018191
:10394000002E2BDD042F0BD003DC3FB1012F16D14D
:1039500005E0072F05D00A2F11D103E000BF00BFFB
:1039600000BF00BF40F2F5216143254A02EB41014F
:10397000294401F10A003146FCF74DFC0DE040F20C
:10398000F52161431E4A02EB4101294401F10A007D
:1039900032465146FCF726FC00BF00BF00200090D5
:1039A00040F2F5206043164901EB400028440A30FC
:1039B0003044BDF80010018005F10A003044801C3D
:1039C0001FFA80F904EB84000E4901EBC000C831F6
:1039D000095D20F8115004EB84000A4901EBC00096
:1039E0001430C831095D20F811600648C830005D08
:1039F000401C0449C8310855484604B0BDE8F09F52
:103A0000044300202A7E00202DE9FF5F07460C4674
:103A100015469846DDE9106BDDF838A000BF05F1CA
:103A20000A0030440E3840F2F52161435F4A02EB50
:103A30004101C98960F30A0140F2F520604302EBBD
:103A40004000C18140F2F5206043114601EB400087
:103A5000C07B20F0080140F2F520604302EB4000FB
:103A6000C17340F2F5206043114601EB4000C07B7A
:103A700020F0F000103040F2F521614302EB4101EB
:103A8000C8738DF804708DF80540ADF80680ADF868
:103A900008A09DF80B0020F038018DF80B109DF860
:103AA0000B0020F040018DF80B109DF80B006BF31C
:103AB000C7108DF80B00BDF80A0066F30A00ADF8D8
:103AC0000A00BDF80A00ADF80A000020ADF80C00AD
:103AD00040F2F5206043114601EB40002844019973
:103AE000016002994160BDF80C100181002E2BDDB0
:103AF000042F0BD003DC3FB1012F16D105E0072FB7
:103B000005D00A2F11D103E000BF00BF00BF00BFE6
:103B100040F2F5216143254A02EB4101294401F1BC
:103B20000A003146FCF777FB0DE040F2F5216143D6
:103B30001E4A02EB4101294401F10A0032460F9965
:103B4000FCF750FB00BF00BF0020009040F2F520C2
:103B50006043164901EB400028440A303044BDF868
:103B60000010018005F10A003044801C1FFA80F922
:103B700004EB84000E4901EBC000C831095D20F858
:103B8000115004EB84000A4901EBC0001430C83125
:103B9000095D20F811600648C830005D401C0449EA
:103BA000C8310855484604B0BDE8F09F04430020E2
:103BB0002A7E00202DE9FE4305460C4600BF00BFCB
:103BC0002B206843244901EBC000B0F838802B203B
:103BD000684301EBC0004C3030F83460F0B28DF82F
:103BE0000400300A8DF805002B20684301EBC0006B
:103BF0004C3000EBC4004688F0B28DF80600300A65
:103C00008DF807002B20684301EBC0004C3000EB1F
:103C1000C40000798DF8080000208DF809002B20E1
:103C2000684301EBC0004C3000EBC40080798DF894
:103C30000A0000208DF80B0044F6206000904FF43D
:103C4000006000EBC401082301AA4046FDF7AAFD6D
:103C500007463846BDE8FE835481002070B50D88C4
:103C60002B2343432D4C04EBC3034C332B244443FD
:103C70002A4E06EBC40494F8944023F834504D883F
:103C80002B234343344604EBC3034C332B244443DC
:103C900006EBC40494F8944003EBC4035D800D79F3
:103CA0002B234343344604EBC3034C332B244443BC
:103CB00006EBC40494F8944003EBC4031D718D79A2
:103CC0002B234343344604EBC3034C332B2444439C
:103CD00006EBC40494F8944003EBC4039D712B23BA
:103CE0004343344604EBC3038C332B24444335460F
:103CF00005EBC40494F894401A552B2343432C46F7
:103D000004EBC30393F894305B1CDCB22B234343D6
:103D100005EBC30383F8944070BD0000548100207C
:103D200073B582B004462B206043114901EBC000FB
:103D3000058F0026BDF80C0003905CB944F62060A6
:103D4000022303AA4FF4907100900020FDF76EFC4F
:103D500006460AE044F62060022303AA4FF490715D
:103D600000902846FDF71EFD0646304604B070BDA3
:103D70005481002010B54FF4A06000F06DF80222CD
:103D80000021FF2000F006F8022200211D2000F093
:103D900001F810BD2DE9F04103460D4616460024FA
:103DA0000027A0462A48006800F4E060B0F5E06F04
:103DB00003D100BF4FF0040830E02548006800F44C
:103DC000E060B0F5C06F03D101274FF0030825E094
:103DD0001F48006800F4E060B0F5A06F02D1022730
:103DE000B8461BE01A48006800F4E060B0F5806F48
:103DF00003D103274FF0010810E01548006800F4D4
:103E0000E060B0F5407F03D104274FF0000805E0E3
:103E10004FF4A06000F020F80227B846C7F1040074
:103E200005FA00F4C8F104010F20C84030400443F3
:103E300024010848C45403F01F010120884059118F
:103E4000890001F1E021C1F80001BDE8F081000026
:103E50000CED00E000E400E002490143024A116079
:103E6000704700000000FA050CED00E0014903C9AD
:103E700070470000280000202DE9F04F8CB0064666
:103E800000200A903EA090E8004CC068CDE905BE35
:103E9000CDF810A007900FF2EC0ADAE9000ACDE99C
:103EA000020A0FF2E00ADAE9000ACDE9000A38480E
:103EB0000068C0F381000B900B9820B1012804D05A
:103EC000022828D103E0334927E0334925E0304870
:103ED000001F006800F03F072D48001F0068C0F376
:103EE000881C2B48001F0068C0F30140401C4FEAAB
:103EF00040092748001F006800F48008B8F5800FCB
:103F000001D1254B00E0234BB3FBF7F000FB0CF095
:103F1000B0FBF9F101E01F4900BF00BF1C48006879
:103F2000C0F3031404A8055D21FA05F218480068DF
:103F3000C0F3822402A8055D22FA05F00990144816
:103F40000068C0F342341DF8045022FA05F00890CE
:103F500036B1012E06D0022E06D0032E0AD106E07D
:103F60000A9108E00A9206E009980A9003E008988E
:103F70000A9000E000BF00BF0A980CB0BDE8F08FC7
:103F80000000000000000000010203040607080909
:103F9000083802400024F40040787D01074A02EB13
:103FA0009011D1F8001800F01F0301229A4011432C
:103FB000024B03EB9012C2F8001870470030024029
:103FC000074A02EB9011D1F8001800F01F030122FC
:103FD0009A409143024B03EB9012C2F800187047CD
:103FE00000300240074A02EB9011D1F8001800F0AF
:103FF0001F0301229A401143024B03EB9012C2F8B7
:1040000000187047003002406FF08071884205D17F
:10401000054909680140044A116004E00249096841
:104020000143014A116070478C3802402DE9F04F7E
:10403000ADF2244D83460E4617469A46DDF8488475
:1040400000200290814600240190002500904FF44A
:10405000037186A8FCF7DFF84FF4037103A8FCF79F
:10406000DAF8002203A95846FEF74EFC81460A20E2
:10407000ADF818020298ADF81A029DF81C0220F063
:104080003F008DF81C029DF81C0220F0C0008DF846
:104090001C029DF81D0220F00F00C01C8DF81D02AF
:1040A0000BF0FF00FDF780F89DF81D1260F306117C
:1040B0008DF81D129DF81D0220F080008DF81D0264
:1040C000BDF81E026FF30800ADF81E0286A8C07985
:1040D00020F00E0186A8C171C07920F0F0002030D8
:1040E00086A9C871BDF81E02ADF81E02ADF82162A6
:1040F0008DF82372DDF84C0418B940208DF82002A9
:1041000009E050208DF820029DF82302012802DDED
:1041100001208DF8230286A95846DDF85024FEF7C9
:10412000F5FC8146B9F1000F35DD4FF4037103A8AA
:10413000FCF771F803A95846DDF85024FEF7E4FBBC
:104140008146B9F1000FEFDD9DF8110000F00F007E
:1041500003287DD19DF813000321B1EB101FF8D186
:10416000BDF81500B042F4D19DF81700B842F0D167
:104170009DF8140000F0020000280DDD9DF81400E9
:10418000C0F38100C0F10404224606A95046FCF7A2
:1041900029F8C8F80040D6E09DF818109DF81900DD
:1041A00041EA00219DF81A0041EA00419DF81B00F8
:1041B00041EA00600190BDF80C00A0F10A040198EA
:1041C000A0427DD9224607A95046FCF70BF82544AA
:1041D000C8F8005000200090A9E04FF4037186A8B1
:1041E000FCF719F80A20ADF818020298ADF81A0287
:1041F0009DF81C0220F03F008DF81C029DF81C0267
:1042000020F0C0008DF81C029DF81D0220F00F0068
:10421000C01C8DF81D020BF0FF00FCF7C5FF9DF8D8
:104220001D1260F306118DF81D129DF81D0220F07D
:1042300080008DF81D02BDF81E026FF30800ADF876
:104240001E0286A8C07920F00E0186A8C17100E088
:1042500077E0C07920F0F000203086A9C871BDF861
:104260001E02ADF81E0200986030C0B28DF8200228
:10427000ADF821628DF823725846DDF85024FEF720
:1042800045FC8146B9F1000F4CDD4FF4037103A8E2
:10429000FBF7C1FF03A95846DDF85024FEF734FBB5
:1042A0008146B9F1000F3CDD9DF8110000F00F00D0
:1042B000032833D19DF813000321B1EB101F00E058
:1042C00037E02BD1BDF81500B04227D19DF817007B
:1042D000B84223D1BDF80C00C41E9DF8140000F0B4
:1042E000010080B1072C03D19DF81400C0F34204F3
:1042F0000AEB050022460DF11501FBF773FF25447B
:10430000C8F800500FE00AEB050022460DF1150138
:10431000FBF768FF2544C8F8005004E04FF000099F
:1043200006E005E004E0009880F01000009054E7FB
:1043300009E0224607A95046FBF754FFC8F80040A1
:1043400001E04FF0000948460DF2244DBDE8F08F22
:1043500010B50B48007828B94FF400710948FCF7F4
:10436000F8FF04E04FF400710648FCF7F4FF04483E
:10437000007808B9012000E000200149087010BD54
:10438000180000200004024030B515480068154AA6
:10439000B0FBF2F1481EB0F1807F01D301201BE099
:1043A000481E4FF0E022506150170F22002807DA14
:1043B00013071D0E0C4B00F00F04241F1D5503E0C6
:1043C00013071C0E094B1C5400BF00204FF0E022C5
:1043D000906107201061002008B100BFFEE730BDEA
:1043E0000000002040420F0018ED00E000E400E073
:1043F000044A116821F4000141EA0002014B1A60ED
:104400007047000004380140002000213A4A126839
:1044100042F48032384B1A6000BF401C364A1268A2
:1044200002F4003119B94FF6FF729042F5D1324AC9
:10443000126802F400320AB900BFFEE72E4A403289
:10444000126842F080522C4B40331A602B4A12689B
:1044500042F44042294B1A60274A08321268264B20
:1044600008331A601A46126842F400421A601A466B
:10447000126842F4A0521A60214A1B1F1A601A1FC8
:10448000126842F080721B1F1A6000BF1A4A12683D
:1044900002F00072002AF9D0184A126842F4803201
:1044A000164B1A6000BF154A526802F48032002A87
:1044B000F9D0124A126842F40032104B1A6000BF61
:1044C0000E4A526802F40032002AF9D00A4A083231
:1044D000126822F00302084B08331A601A46126869
:1044E00042F002021A6000BF034A0832126802F06A
:1044F0000802002AF8D070470038024000700040DF
:104500001964400910B5FFF77FFF10BD08B5002002
:1045100000906A464FF4C8610448FBF7ADFFBDF850
:1045200000100248FBF7BBFF08BD0000C43C0020A0
:1045300010B504465C49601A8C426FD019DC5B49A7
:10454000A4EB01008C424ED009DCB4F1804F2ED098
:1045500057482044A0B3B0F5806F72D13AE0B0F56F
:10456000806F49D0B0F5006F4FD0B0F5406FF4D1F7
:104570007BE0B0F5923F5BD009DCB0F5806F73D083
:10458000B0F5644F0AD0B0F5684F5AD147E0B0F5A6
:10459000943F57D0B0F5963F53D15CE04FF4106094
:1045A000FFF720FD4FF41060FFF70AFD79E04FF4AC
:1045B0000060FFF717FD4FF40060FFF701FD70E0AA
:1045C000FFE740F60100FFF70DFD40F60100FFF7A1
:1045D000F7FC66E040F60200FFF704FD40F602003B
:1045E000FFF7EEFC5DE040F60300FFF7FBFC40F652
:1045F0000300FFF7E5FC54E040F60400FFF7F2FC8F
:1046000040F60400FFF7DCFC4BE040F60500FFF746
:10461000E9FC40F60500FFF7D3FC42E02EE040F64F
:104620000110FFF7DFFC40F60110FFF7C9FC38E08E
:104630004FF41160FFF7D6FC4FF41160FFF7C0FC98
:104640002FE02DE040F61110FFF7CCFC40F61110E2
:10465000FFF7B6FC25E040F61210FFF7C3FC40F66A
:104660001210FFF7ADFC1CE011E040F60600FFF76A
:10467000B9FC40F60600FFF7A3FC12E040F6070085
:10468000FFF7B0FC40F60700FFF79AFC09E040F6A0
:104690000800FFF7A7FC40F60800FFF791FC00E0D8
:1046A00000BF00BF10BD0000001C0040000C004017
:1046B00000FCFFBF016841F001010160704700008C
:1046C0000A8882621D4A90420ED0B0F1804F0BD012
:1046D0001B4A904208D01B4A904205D01A4A904289
:1046E00002D01A4A90420BD1026822F07002026096
:1046F00002684B881A43026002688B881A43026082
:104700008A68C262124A90420AD0124A904207D086
:10471000026822F4407202600268CB881A43026089
:10472000064A904202D0094A904201D10A7B0263B4
:10473000426942F0010242617047000000000140FE
:104740000004004000080040000C0040000401404C
:104750000010004000140040C2680A43C260704765
:10476000CA43026170470246D06800EA010310693B
:10477000084010B10BB1012070470020FCE7000099
:10478000A04700080000002060000000AC03000803
:104790000048000860000020A0970000BC0300084B
:1047A00000C2EB0B00000000000000000000000051
:1047B00000000000000000000000000000000000F9
:1047C00000000000400D0300000000000000000099
:1047D000AAAAAAAAAAAAFFFFFFFFFFFF01010101DF
:1047E00001010000000000000000000000000000C7
:1047F00000000000000000000000000000000000B9
:04000005080001AD41
:00000001FF
